{
  "contractName": "SimpleStorage",
  "abi": [
    {
      "inputs": [],
      "payable": false,
      "stateMutability": "nonpayable",
      "type": "constructor"
    },
    {
      "constant": true,
      "inputs": [
        {
          "internalType": "uint256",
          "name": "",
          "type": "uint256"
        }
      ],
      "name": "content",
      "outputs": [
        {
          "internalType": "uint256",
          "name": "id",
          "type": "uint256"
        },
        {
          "internalType": "string",
          "name": "contentType",
          "type": "string"
        },
        {
          "internalType": "string",
          "name": "contentHash",
          "type": "string"
        },
        {
          "internalType": "string",
          "name": "description",
          "type": "string"
        },
        {
          "internalType": "string",
          "name": "title",
          "type": "string"
        },
        {
          "internalType": "string",
          "name": "author",
          "type": "string"
        },
        {
          "internalType": "address",
          "name": "authorAddress",
          "type": "address"
        },
        {
          "internalType": "bool",
          "name": "isRemoved",
          "type": "bool"
        }
      ],
      "payable": false,
      "stateMutability": "view",
      "type": "function"
    },
    {
      "constant": true,
      "inputs": [],
      "name": "contentCount",
      "outputs": [
        {
          "internalType": "uint256",
          "name": "",
          "type": "uint256"
        }
      ],
      "payable": false,
      "stateMutability": "view",
      "type": "function"
    },
    {
      "constant": true,
      "inputs": [
        {
          "internalType": "address",
          "name": "",
          "type": "address"
        }
      ],
      "name": "creator",
      "outputs": [
        {
          "internalType": "uint256",
          "name": "id",
          "type": "uint256"
        },
        {
          "internalType": "string",
          "name": "creatorName",
          "type": "string"
        },
        {
          "internalType": "address",
          "name": "creatorAddress",
          "type": "address"
        },
        {
          "internalType": "bool",
          "name": "isRegistered",
          "type": "bool"
        }
      ],
      "payable": false,
      "stateMutability": "view",
      "type": "function"
    },
    {
      "constant": true,
      "inputs": [],
      "name": "creatorCount",
      "outputs": [
        {
          "internalType": "uint256",
          "name": "",
          "type": "uint256"
        }
      ],
      "payable": false,
      "stateMutability": "view",
      "type": "function"
    },
    {
      "constant": true,
      "inputs": [],
      "name": "owner",
      "outputs": [
        {
          "internalType": "address",
          "name": "",
          "type": "address"
        }
      ],
      "payable": false,
      "stateMutability": "view",
      "type": "function"
    },
    {
      "constant": true,
      "inputs": [
        {
          "internalType": "address",
          "name": "_address",
          "type": "address"
        }
      ],
      "name": "getCreator",
      "outputs": [
        {
          "components": [
            {
              "internalType": "uint256",
              "name": "id",
              "type": "uint256"
            },
            {
              "internalType": "string",
              "name": "creatorName",
              "type": "string"
            },
            {
              "internalType": "address",
              "name": "creatorAddress",
              "type": "address"
            },
            {
              "internalType": "uint256[]",
              "name": "creatorContentId",
              "type": "uint256[]"
            },
            {
              "internalType": "bool",
              "name": "isRegistered",
              "type": "bool"
            }
          ],
          "internalType": "struct SimpleStorage.Creator",
          "name": "",
          "type": "tuple"
        }
      ],
      "payable": false,
      "stateMutability": "view",
      "type": "function"
    },
    {
      "constant": true,
      "inputs": [
        {
          "internalType": "uint256",
          "name": "_id",
          "type": "uint256"
        }
      ],
      "name": "getContent",
      "outputs": [
        {
          "components": [
            {
              "internalType": "uint256",
              "name": "id",
              "type": "uint256"
            },
            {
              "internalType": "string",
              "name": "contentType",
              "type": "string"
            },
            {
              "internalType": "string",
              "name": "contentHash",
              "type": "string"
            },
            {
              "internalType": "string",
              "name": "description",
              "type": "string"
            },
            {
              "internalType": "string",
              "name": "title",
              "type": "string"
            },
            {
              "internalType": "string",
              "name": "author",
              "type": "string"
            },
            {
              "internalType": "address",
              "name": "authorAddress",
              "type": "address"
            },
            {
              "internalType": "bool",
              "name": "isRemoved",
              "type": "bool"
            }
          ],
          "internalType": "struct SimpleStorage.Content",
          "name": "",
          "type": "tuple"
        }
      ],
      "payable": false,
      "stateMutability": "view",
      "type": "function"
    },
    {
      "constant": false,
      "inputs": [
        {
          "internalType": "uint256",
          "name": "_id",
          "type": "uint256"
        },
        {
          "internalType": "string",
          "name": "_contentHash",
          "type": "string"
        },
        {
          "internalType": "string",
          "name": "_title",
          "type": "string"
        }
      ],
      "name": "deleteContent",
      "outputs": [],
      "payable": false,
      "stateMutability": "nonpayable",
      "type": "function"
    },
    {
      "constant": false,
      "inputs": [
        {
          "internalType": "uint256",
          "name": "_id",
          "type": "uint256"
        },
        {
          "internalType": "string",
          "name": "_contentHash",
          "type": "string"
        },
        {
          "internalType": "string",
          "name": "_title",
          "type": "string"
        }
      ],
      "name": "restoreContent",
      "outputs": [],
      "payable": false,
      "stateMutability": "nonpayable",
      "type": "function"
    },
    {
      "constant": false,
      "inputs": [
        {
          "internalType": "string",
          "name": "_name",
          "type": "string"
        },
        {
          "internalType": "string",
          "name": "_contentType",
          "type": "string"
        },
        {
          "internalType": "string",
          "name": "_contentHash",
          "type": "string"
        },
        {
          "internalType": "string",
          "name": "_description",
          "type": "string"
        },
        {
          "internalType": "string",
          "name": "_title",
          "type": "string"
        }
      ],
      "name": "addContent",
      "outputs": [],
      "payable": false,
      "stateMutability": "nonpayable",
      "type": "function"
    }
  ],
  "bytecode": "0x608060405234801561001057600080fd5b50336000806101000a81548173ffffffffffffffffffffffffffffffffffffffff021916908373ffffffffffffffffffffffffffffffffffffffff160217905550611c71806100606000396000f3fe608060405234801561001057600080fd5b506004361061009e5760003560e01c8063baa0b80611610066578063baa0b80614610159578063cc45969614610190578063d82faa48146101ae578063f1bc1b1a146101cc578063fc0cdf76146101e85761009e565b80630b7ad54c146100a35780633d3f8ced146100d35780638da5cb5b146100ef57806391102ae81461010d578063a021030914610129575b600080fd5b6100bd60048036036100b8919081019061160c565b61021b565b6040516100ca919061195a565b60405180910390f35b6100ed60048036036100e89190810190611635565b6105ee565b005b6100f761068d565b604051610104919061193f565b60405180910390f35b61012760048036036101229190810190611635565b6106b2565b005b610143600480360361013e91908101906114f4565b610751565b604051610150919061197c565b60405180910390f35b610173600480360361016e919081019061160c565b61091f565b604051610187989796959493929190611a05565b60405180910390f35b610198610c8c565b6040516101a5919061199e565b60405180910390f35b6101b6610c92565b6040516101c3919061199e565b60405180910390f35b6101e660048036036101e1919081019061151d565b610c98565b005b61020260048036036101fd91908101906114f4565b6111eb565b60405161021294939291906119b9565b60405180910390f35b6102236112e0565b600360008381526020019081526020016000206040518061010001604052908160008201548152602001600182018054600181600116156101000203166002900480601f0160208091040260200160405190810160405280929190818152602001828054600181600116156101000203166002900480156102e55780601f106102ba576101008083540402835291602001916102e5565b820191906000526020600020905b8154815290600101906020018083116102c857829003601f168201915b50505050508152602001600282018054600181600116156101000203166002900480601f0160208091040260200160405190810160405280929190818152602001828054600181600116156101000203166002900480156103875780601f1061035c57610100808354040283529160200191610387565b820191906000526020600020905b81548152906001019060200180831161036a57829003601f168201915b50505050508152602001600382018054600181600116156101000203166002900480601f0160208091040260200160405190810160405280929190818152602001828054600181600116156101000203166002900480156104295780601f106103fe57610100808354040283529160200191610429565b820191906000526020600020905b81548152906001019060200180831161040c57829003601f168201915b50505050508152602001600482018054600181600116156101000203166002900480601f0160208091040260200160405190810160405280929190818152602001828054600181600116156101000203166002900480156104cb5780601f106104a0576101008083540402835291602001916104cb565b820191906000526020600020905b8154815290600101906020018083116104ae57829003601f168201915b50505050508152602001600582018054600181600116156101000203166002900480601f01602080910402602001604051908101604052809291908181526020018280546001816001161561010002031660029004801561056d5780601f106105425761010080835404028352916020019161056d565b820191906000526020600020905b81548152906001019060200180831161055057829003601f168201915b505050505081526020016006820160009054906101000a900473ffffffffffffffffffffffffffffffffffffffff1673ffffffffffffffffffffffffffffffffffffffff1673ffffffffffffffffffffffffffffffffffffffff1681526020016006820160149054906101000a900460ff1615151515815250509050919050565b6003600084815260200190815260200160002060060160009054906101000a900473ffffffffffffffffffffffffffffffffffffffff1673ffffffffffffffffffffffffffffffffffffffff163373ffffffffffffffffffffffffffffffffffffffff1614156106885760016003600085815260200190815260200160002060060160146101000a81548160ff0219169083151502179055505b505050565b6000809054906101000a900473ffffffffffffffffffffffffffffffffffffffff1681565b6003600084815260200190815260200160002060060160009054906101000a900473ffffffffffffffffffffffffffffffffffffffff1673ffffffffffffffffffffffffffffffffffffffff163373ffffffffffffffffffffffffffffffffffffffff16141561074c5760006003600085815260200190815260200160002060060160146101000a81548160ff0219169083151502179055505b505050565b61075961133d565b600460008373ffffffffffffffffffffffffffffffffffffffff1673ffffffffffffffffffffffffffffffffffffffff1681526020019081526020016000206040518060a001604052908160008201548152602001600182018054600181600116156101000203166002900480601f0160208091040260200160405190810160405280929190818152602001828054600181600116156101000203166002900480156108465780601f1061081b57610100808354040283529160200191610846565b820191906000526020600020905b81548152906001019060200180831161082957829003601f168201915b505050505081526020016002820160009054906101000a900473ffffffffffffffffffffffffffffffffffffffff1673ffffffffffffffffffffffffffffffffffffffff1673ffffffffffffffffffffffffffffffffffffffff168152602001600382018054806020026020016040519081016040528092919081815260200182805480156108f457602002820191906000526020600020905b8154815260200190600101908083116108e0575b505050505081526020016004820160009054906101000a900460ff1615151515815250509050919050565b6003602052806000526040600020600091509050806000015490806001018054600181600116156101000203166002900480601f0160208091040260200160405190810160405280929190818152602001828054600181600116156101000203166002900480156109d15780601f106109a6576101008083540402835291602001916109d1565b820191906000526020600020905b8154815290600101906020018083116109b457829003601f168201915b505050505090806002018054600181600116156101000203166002900480601f016020809104026020016040519081016040528092919081815260200182805460018160011615610100020316600290048015610a6f5780601f10610a4457610100808354040283529160200191610a6f565b820191906000526020600020905b815481529060010190602001808311610a5257829003601f168201915b505050505090806003018054600181600116156101000203166002900480601f016020809104026020016040519081016040528092919081815260200182805460018160011615610100020316600290048015610b0d5780601f10610ae257610100808354040283529160200191610b0d565b820191906000526020600020905b815481529060010190602001808311610af057829003601f168201915b505050505090806004018054600181600116156101000203166002900480601f016020809104026020016040519081016040528092919081815260200182805460018160011615610100020316600290048015610bab5780601f10610b8057610100808354040283529160200191610bab565b820191906000526020600020905b815481529060010190602001808311610b8e57829003601f168201915b505050505090806005018054600181600116156101000203166002900480601f016020809104026020016040519081016040528092919081815260200182805460018160011615610100020316600290048015610c495780601f10610c1e57610100808354040283529160200191610c49565b820191906000526020600020905b815481529060010190602001808311610c2c57829003601f168201915b5050505050908060060160009054906101000a900473ffffffffffffffffffffffffffffffffffffffff16908060060160149054906101000a900460ff16905088565b60025481565b60015481565b600260008154809291906001019190505550600460003373ffffffffffffffffffffffffffffffffffffffff1673ffffffffffffffffffffffffffffffffffffffff16815260200190815260200160002060040160009054906101000a900460ff1615610ee157600460003373ffffffffffffffffffffffffffffffffffffffff1673ffffffffffffffffffffffffffffffffffffffff168152602001908152602001600020600301600254908060018154018082558091505090600182039060005260206000200160009091929091909150555060405180610100016040528060025481526020018581526020018481526020018381526020018281526020018681526020013373ffffffffffffffffffffffffffffffffffffffff16815260200160001515815250600360006002548152602001908152602001600020600082015181600001556020820151816001019080519060200190610dfd929190611384565b506040820151816002019080519060200190610e1a929190611384565b506060820151816003019080519060200190610e37929190611384565b506080820151816004019080519060200190610e54929190611384565b5060a0820151816005019080519060200190610e71929190611384565b5060c08201518160060160006101000a81548173ffffffffffffffffffffffffffffffffffffffff021916908373ffffffffffffffffffffffffffffffffffffffff16021790555060e08201518160060160146101000a81548160ff0219169083151502179055509050506111e4565b60016000815480929190600101919050555060606001604051908082528060200260200182016040528015610f255781602001602082028038833980820191505090505b50905060025481600081518110610f3857fe5b6020026020010181815250506040518060a0016040528060015481526020018781526020013373ffffffffffffffffffffffffffffffffffffffff16815260200182815260200160011515815250600460003373ffffffffffffffffffffffffffffffffffffffff1673ffffffffffffffffffffffffffffffffffffffff168152602001908152602001600020600082015181600001556020820151816001019080519060200190610feb929190611384565b5060408201518160020160006101000a81548173ffffffffffffffffffffffffffffffffffffffff021916908373ffffffffffffffffffffffffffffffffffffffff160217905550606082015181600301908051906020019061104f929190611404565b5060808201518160040160006101000a81548160ff02191690831515021790555090505060405180610100016040528060025481526020018681526020018581526020018481526020018381526020018781526020013373ffffffffffffffffffffffffffffffffffffffff16815260200160001515815250600360006002548152602001908152602001600020600082015181600001556020820151816001019080519060200190611103929190611384565b506040820151816002019080519060200190611120929190611384565b50606082015181600301908051906020019061113d929190611384565b50608082015181600401908051906020019061115a929190611384565b5060a0820151816005019080519060200190611177929190611384565b5060c08201518160060160006101000a81548173ffffffffffffffffffffffffffffffffffffffff021916908373ffffffffffffffffffffffffffffffffffffffff16021790555060e08201518160060160146101000a81548160ff021916908315150217905550905050505b5050505050565b6004602052806000526040600020600091509050806000015490806001018054600181600116156101000203166002900480601f01602080910402602001604051908101604052809291908181526020018280546001816001161561010002031660029004801561129d5780601f106112725761010080835404028352916020019161129d565b820191906000526020600020905b81548152906001019060200180831161128057829003601f168201915b5050505050908060020160009054906101000a900473ffffffffffffffffffffffffffffffffffffffff16908060040160009054906101000a900460ff16905084565b604051806101000160405280600081526020016060815260200160608152602001606081526020016060815260200160608152602001600073ffffffffffffffffffffffffffffffffffffffff1681526020016000151581525090565b6040518060a001604052806000815260200160608152602001600073ffffffffffffffffffffffffffffffffffffffff168152602001606081526020016000151581525090565b828054600181600116156101000203166002900490600052602060002090601f016020900481019282601f106113c557805160ff19168380011785556113f3565b828001600101855582156113f3579182015b828111156113f25782518255916020019190600101906113d7565b5b5090506114009190611451565b5090565b828054828255906000526020600020908101928215611440579160200282015b8281111561143f578251825591602001919060010190611424565b5b50905061144d9190611451565b5090565b61147391905b8082111561146f576000816000905550600101611457565b5090565b90565b60008135905061148581611c00565b92915050565b600082601f83011261149c57600080fd5b81356114af6114aa82611ad3565b611aa6565b915080825260208301602083018583830111156114cb57600080fd5b6114d6838284611bad565b50505092915050565b6000813590506114ee81611c17565b92915050565b60006020828403121561150657600080fd5b600061151484828501611476565b91505092915050565b600080600080600060a0868803121561153557600080fd5b600086013567ffffffffffffffff81111561154f57600080fd5b61155b8882890161148b565b955050602086013567ffffffffffffffff81111561157857600080fd5b6115848882890161148b565b945050604086013567ffffffffffffffff8111156115a157600080fd5b6115ad8882890161148b565b935050606086013567ffffffffffffffff8111156115ca57600080fd5b6115d68882890161148b565b925050608086013567ffffffffffffffff8111156115f357600080fd5b6115ff8882890161148b565b9150509295509295909350565b60006020828403121561161e57600080fd5b600061162c848285016114df565b91505092915050565b60008060006060848603121561164a57600080fd5b6000611658868287016114df565b935050602084013567ffffffffffffffff81111561167557600080fd5b6116818682870161148b565b925050604084013567ffffffffffffffff81111561169e57600080fd5b6116aa8682870161148b565b9150509250925092565b60006116c08383611921565b60208301905092915050565b6116d581611b65565b82525050565b6116e481611b65565b82525050565b60006116f582611b0f565b6116ff8185611b32565b935061170a83611aff565b8060005b8381101561173b57815161172288826116b4565b975061172d83611b25565b92505060018101905061170e565b5085935050505092915050565b61175181611b77565b82525050565b61176081611b77565b82525050565b600061177182611b1a565b61177b8185611b43565b935061178b818560208601611bbc565b61179481611bef565b840191505092915050565b60006117aa82611b1a565b6117b48185611b54565b93506117c4818560208601611bbc565b6117cd81611bef565b840191505092915050565b6000610100830160008301516117f16000860182611921565b50602083015184820360208601526118098282611766565b915050604083015184820360408601526118238282611766565b9150506060830151848203606086015261183d8282611766565b915050608083015184820360808601526118578282611766565b91505060a083015184820360a08601526118718282611766565b91505060c083015161188660c08601826116cc565b5060e083015161189960e0860182611748565b508091505092915050565b600060a0830160008301516118bc6000860182611921565b50602083015184820360208601526118d48282611766565b91505060408301516118e960408601826116cc565b506060830151848203606086015261190182826116ea565b91505060808301516119166080860182611748565b508091505092915050565b61192a81611ba3565b82525050565b61193981611ba3565b82525050565b600060208201905061195460008301846116db565b92915050565b6000602082019050818103600083015261197481846117d8565b905092915050565b6000602082019050818103600083015261199681846118a4565b905092915050565b60006020820190506119b36000830184611930565b92915050565b60006080820190506119ce6000830187611930565b81810360208301526119e0818661179f565b90506119ef60408301856116db565b6119fc6060830184611757565b95945050505050565b600061010082019050611a1b600083018b611930565b8181036020830152611a2d818a61179f565b90508181036040830152611a41818961179f565b90508181036060830152611a55818861179f565b90508181036080830152611a69818761179f565b905081810360a0830152611a7d818661179f565b9050611a8c60c08301856116db565b611a9960e0830184611757565b9998505050505050505050565b6000604051905081810181811067ffffffffffffffff82111715611ac957600080fd5b8060405250919050565b600067ffffffffffffffff821115611aea57600080fd5b601f19601f8301169050602081019050919050565b6000819050602082019050919050565b600081519050919050565b600081519050919050565b6000602082019050919050565b600082825260208201905092915050565b600082825260208201905092915050565b600082825260208201905092915050565b6000611b7082611b83565b9050919050565b60008115159050919050565b600073ffffffffffffffffffffffffffffffffffffffff82169050919050565b6000819050919050565b82818337600083830152505050565b60005b83811015611bda578082015181840152602081019050611bbf565b83811115611be9576000848401525b50505050565b6000601f19601f8301169050919050565b611c0981611b65565b8114611c1457600080fd5b50565b611c2081611ba3565b8114611c2b57600080fd5b5056fea365627a7a72315820970e004fb0518e342e7e273ba7b998900cfab9c203cb128cf7f79b1c3f47f6576c6578706572696d656e74616cf564736f6c63430005100040",
  "source": "pragma solidity ^0.5.16;\npragma experimental ABIEncoderV2;\n\ncontract SimpleStorage {\n\n    address public owner;\n    uint public creatorCount;\n    uint public contentCount;\n\n    constructor() public {\n\n        owner = msg.sender;\n\n    }\n\n    struct Content {\n\n        uint id;\n        string contentType;\n        string contentHash;\n        string description;\n        string title;\n        string author;\n        address authorAddress;\n        bool isRemoved;\n\n        //////                ////////\n        //should add author _address//\n        //////                ////////\n\n    }\n\n    struct Creator {\n\n        uint id;\n        string creatorName;\n        address creatorAddress;\n        uint[] creatorContentId;\n        bool isRegistered;\n\n    }\n\n    mapping(uint => Content) public content;\n    mapping(address => Creator) public creator;\n\n\n    function getCreator(address _address) public view returns (Creator memory) {\n      return creator[_address];\n    }\n\n    function getContent(uint _id) public view returns (Content memory) {\n      return content[_id];\n    }\n\n    function deleteContent(uint _id, string memory _contentHash, string memory _title) public {\n\n        if(msg.sender == content[_id].authorAddress){\n\n            content[_id].isRemoved = true;\n\n        }\n    }\n\n    function restoreContent(uint _id, string memory _contentHash, string memory _title) public {\n\n        if(msg.sender == content[_id].authorAddress){\n\n            content[_id].isRemoved = false;\n\n        }\n    }\n\n    function addContent(string memory _name, string memory _contentType, string memory _contentHash, string memory _description, string memory _title) public {\n\n        contentCount++;\n        if(creator[msg.sender].isRegistered){\n\n            creator[msg.sender].creatorContentId.push(contentCount);\n            content[contentCount] = Content(contentCount, _contentType, _contentHash, _description, _title, _name, msg.sender, false);\n\n        } else {\n\n            creatorCount++;\n            uint[] memory _localArray = new uint[](1);\n            _localArray[0] = contentCount;\n            creator[msg.sender] = Creator(creatorCount, _name, msg.sender, _localArray, true);\n            content[contentCount] = Content(contentCount, _contentType, _contentHash, _description, _title, _name, msg.sender, false);\n\n        }\n\n    }\n\n}\n",
  "sourcePath": "/home/vrag/project/Author/contracts/SimpleStorage.sol",
  "compiler": {
    "name": "solc",
    "version": "0.5.16+commit.9c3226ce.Emscripten.clang"
  },
  "schemaVersion": "3.3.4",
  "updatedAt": "2021-03-24T07:13:10.141Z",
  "networkType": "ethereum",
  "devdoc": {
    "methods": {}
  },
  "userdoc": {
    "methods": {}
  }
}